{
  "address": "0x842ac4Af042ffa0Baa62A350E70d5e10cC3C25BB",
  "abi": [
    {
      "inputs": [
        {
          "internalType": "address",
          "name": "initialOwner",
          "type": "address"
        }
      ],
      "stateMutability": "nonpayable",
      "type": "constructor"
    },
    {
      "inputs": [
        {
          "internalType": "address",
          "name": "owner",
          "type": "address"
        }
      ],
      "name": "OwnableInvalidOwner",
      "type": "error"
    },
    {
      "inputs": [
        {
          "internalType": "address",
          "name": "account",
          "type": "address"
        }
      ],
      "name": "OwnableUnauthorizedAccount",
      "type": "error"
    },
    {
      "anonymous": false,
      "inputs": [
        {
          "indexed": false,
          "internalType": "uint256",
          "name": "labelId",
          "type": "uint256"
        },
        {
          "indexed": false,
          "internalType": "address",
          "name": "sender",
          "type": "address"
        },
        {
          "indexed": false,
          "internalType": "address",
          "name": "receiver",
          "type": "address"
        }
      ],
      "name": "LabelCreated",
      "type": "event"
    },
    {
      "anonymous": false,
      "inputs": [
        {
          "indexed": false,
          "internalType": "uint256",
          "name": "labelId",
          "type": "uint256"
        },
        {
          "indexed": false,
          "internalType": "address",
          "name": "receiver",
          "type": "address"
        }
      ],
      "name": "LabelReceived",
      "type": "event"
    },
    {
      "anonymous": false,
      "inputs": [
        {
          "indexed": false,
          "internalType": "uint256",
          "name": "labelId",
          "type": "uint256"
        },
        {
          "indexed": false,
          "internalType": "address",
          "name": "sender",
          "type": "address"
        }
      ],
      "name": "LabelSent",
      "type": "event"
    },
    {
      "anonymous": false,
      "inputs": [
        {
          "indexed": false,
          "internalType": "uint256",
          "name": "labelId",
          "type": "uint256"
        },
        {
          "indexed": false,
          "internalType": "address",
          "name": "by",
          "type": "address"
        }
      ],
      "name": "LabelVoided",
      "type": "event"
    },
    {
      "anonymous": false,
      "inputs": [
        {
          "indexed": true,
          "internalType": "address",
          "name": "previousOwner",
          "type": "address"
        },
        {
          "indexed": true,
          "internalType": "address",
          "name": "newOwner",
          "type": "address"
        }
      ],
      "name": "OwnershipTransferred",
      "type": "event"
    },
    {
      "inputs": [
        {
          "internalType": "address",
          "name": "",
          "type": "address"
        }
      ],
      "name": "authorizedIoTReceivers",
      "outputs": [
        {
          "internalType": "bool",
          "name": "",
          "type": "bool"
        }
      ],
      "stateMutability": "view",
      "type": "function"
    },
    {
      "inputs": [
        {
          "internalType": "address",
          "name": "",
          "type": "address"
        }
      ],
      "name": "authorizedIoTSenders",
      "outputs": [
        {
          "internalType": "bool",
          "name": "",
          "type": "bool"
        }
      ],
      "stateMutability": "view",
      "type": "function"
    },
    {
      "inputs": [
        {
          "internalType": "address",
          "name": "",
          "type": "address"
        }
      ],
      "name": "authorizedLabelCreators",
      "outputs": [
        {
          "internalType": "bool",
          "name": "",
          "type": "bool"
        }
      ],
      "stateMutability": "view",
      "type": "function"
    },
    {
      "inputs": [
        {
          "internalType": "uint256",
          "name": "_labelId",
          "type": "uint256"
        },
        {
          "internalType": "address",
          "name": "_sender",
          "type": "address"
        },
        {
          "internalType": "address",
          "name": "_receiver",
          "type": "address"
        }
      ],
      "name": "createLabel",
      "outputs": [],
      "stateMutability": "nonpayable",
      "type": "function"
    },
    {
      "inputs": [
        {
          "internalType": "address",
          "name": "",
          "type": "address"
        }
      ],
      "name": "deviceInfo",
      "outputs": [
        {
          "internalType": "address",
          "name": "device",
          "type": "address"
        },
        {
          "internalType": "string",
          "name": "location",
          "type": "string"
        }
      ],
      "stateMutability": "view",
      "type": "function"
    },
    {
      "inputs": [],
      "name": "labelCounter",
      "outputs": [
        {
          "internalType": "uint256",
          "name": "",
          "type": "uint256"
        }
      ],
      "stateMutability": "view",
      "type": "function"
    },
    {
      "inputs": [
        {
          "internalType": "uint256",
          "name": "",
          "type": "uint256"
        }
      ],
      "name": "labels",
      "outputs": [
        {
          "internalType": "uint256",
          "name": "id",
          "type": "uint256"
        },
        {
          "internalType": "address",
          "name": "sender",
          "type": "address"
        },
        {
          "internalType": "address",
          "name": "receiver",
          "type": "address"
        },
        {
          "internalType": "bool",
          "name": "sent",
          "type": "bool"
        },
        {
          "internalType": "bool",
          "name": "received",
          "type": "bool"
        },
        {
          "internalType": "bool",
          "name": "voided",
          "type": "bool"
        }
      ],
      "stateMutability": "view",
      "type": "function"
    },
    {
      "inputs": [
        {
          "internalType": "uint256",
          "name": "_labelId",
          "type": "uint256"
        }
      ],
      "name": "markAsReceived",
      "outputs": [],
      "stateMutability": "nonpayable",
      "type": "function"
    },
    {
      "inputs": [
        {
          "internalType": "uint256",
          "name": "_labelId",
          "type": "uint256"
        }
      ],
      "name": "markAsSent",
      "outputs": [],
      "stateMutability": "nonpayable",
      "type": "function"
    },
    {
      "inputs": [],
      "name": "owner",
      "outputs": [
        {
          "internalType": "address",
          "name": "",
          "type": "address"
        }
      ],
      "stateMutability": "view",
      "type": "function"
    },
    {
      "inputs": [],
      "name": "renounceOwnership",
      "outputs": [],
      "stateMutability": "nonpayable",
      "type": "function"
    },
    {
      "inputs": [
        {
          "internalType": "address",
          "name": "_device",
          "type": "address"
        },
        {
          "internalType": "string",
          "name": "_location",
          "type": "string"
        }
      ],
      "name": "setDeviceInfo",
      "outputs": [],
      "stateMutability": "nonpayable",
      "type": "function"
    },
    {
      "inputs": [
        {
          "internalType": "address",
          "name": "_account",
          "type": "address"
        },
        {
          "internalType": "bool",
          "name": "_asSender",
          "type": "bool"
        },
        {
          "internalType": "bool",
          "name": "_asReceiver",
          "type": "bool"
        },
        {
          "internalType": "bool",
          "name": "_status",
          "type": "bool"
        }
      ],
      "name": "setIoTAuthorization",
      "outputs": [],
      "stateMutability": "nonpayable",
      "type": "function"
    },
    {
      "inputs": [
        {
          "internalType": "address",
          "name": "_account",
          "type": "address"
        },
        {
          "internalType": "bool",
          "name": "_status",
          "type": "bool"
        }
      ],
      "name": "setLabelCreatorAuthorization",
      "outputs": [],
      "stateMutability": "nonpayable",
      "type": "function"
    },
    {
      "inputs": [
        {
          "internalType": "address",
          "name": "newOwner",
          "type": "address"
        }
      ],
      "name": "transferOwnership",
      "outputs": [],
      "stateMutability": "nonpayable",
      "type": "function"
    },
    {
      "inputs": [
        {
          "internalType": "uint256",
          "name": "_labelId",
          "type": "uint256"
        }
      ],
      "name": "voidLabel",
      "outputs": [],
      "stateMutability": "nonpayable",
      "type": "function"
    }
  ],
  "transactionHash": "0x069312bfee1ec071b8d9a94f46e3589d0768ec37298772c0a8dfd106ff25c0c4",
  "args": [
    "0x852fED90D184b8Da47DFEe4E92E59A04B0e19dac"
  ],
  "numDeployments": 1,
  "solcInputHash": "1d9bd56d4e60f73af8945e7fe89e540e",
  "bytecode": "0x608060405234801561001057600080fd5b5060405161239c38038061239c833981810160405281019061003291906101e2565b80600073ffffffffffffffffffffffffffffffffffffffff168173ffffffffffffffffffffffffffffffffffffffff16036100a55760006040517f1e4fbdf700000000000000000000000000000000000000000000000000000000815260040161009c919061021e565b60405180910390fd5b6100b4816100bb60201b60201c565b5050610239565b60008060009054906101000a900473ffffffffffffffffffffffffffffffffffffffff169050816000806101000a81548173ffffffffffffffffffffffffffffffffffffffff021916908373ffffffffffffffffffffffffffffffffffffffff1602179055508173ffffffffffffffffffffffffffffffffffffffff168173ffffffffffffffffffffffffffffffffffffffff167f8be0079c531659141344cd1fd0a4f28419497f9722a3daafe3b4186f6b6457e060405160405180910390a35050565b600080fd5b600073ffffffffffffffffffffffffffffffffffffffff82169050919050565b60006101af82610184565b9050919050565b6101bf816101a4565b81146101ca57600080fd5b50565b6000815190506101dc816101b6565b92915050565b6000602082840312156101f8576101f761017f565b5b6000610206848285016101cd565b91505092915050565b610218816101a4565b82525050565b6000602082019050610233600083018461020f565b92915050565b612154806102486000396000f3fe608060405234801561001057600080fd5b50600436106101005760003560e01c80636e1fa22a116100975780638fdacd99116100665780638fdacd991461027057806391b6e82c146102a0578063f25fed48146102d0578063f2fde38b1461030557610100565b80636e1fa22a1461020e578063715018a61461022c578063790b6448146102365780638da5cb5b1461025257610100565b80634d979106116100d35780634d9791061461018a57806351aa9486146101a6578063570dc1f9146101c2578063581327a5146101de57610100565b8063020ba615146101055780630896f7c11461012157806327e296bc1461013d5780632f8b123f1461016e575b600080fd5b61011f600480360381019061011a91906113d0565b610321565b005b61013b60048036038101906101369190611475565b610384565b005b610157600480360381019061015291906114d5565b61049f565b6040516101659291906115a1565b60405180910390f35b61018860048036038101906101839190611607565b61056b565b005b6101a4600480360381019061019f9190611607565b610793565b005b6101c060048036038101906101bb9190611607565b61097d565b005b6101dc60048036038101906101d79190611634565b610bf6565b005b6101f860048036038101906101f391906114d5565b610cc0565b60405161020591906116aa565b60405180910390f35b610216610ce0565b60405161022391906116d4565b60405180910390f35b610234610ce6565b005b610250600480360381019061024b91906116ef565b610cfa565b005b61025a61104b565b6040516102679190611742565b60405180910390f35b61028a600480360381019061028591906114d5565b611074565b60405161029791906116aa565b60405180910390f35b6102ba60048036038101906102b591906114d5565b611094565b6040516102c791906116aa565b60405180910390f35b6102ea60048036038101906102e59190611607565b6110b4565b6040516102fc9695949392919061175d565b60405180910390f35b61031f600480360381019061031a91906114d5565b611157565b005b6103296111dd565b80600360008473ffffffffffffffffffffffffffffffffffffffff1673ffffffffffffffffffffffffffffffffffffffff16815260200190815260200160002060006101000a81548160ff0219169083151502179055505050565b61038c6111dd565b60405180604001604052808473ffffffffffffffffffffffffffffffffffffffff16815260200183838080601f016020809104026020016040519081016040528093929190818152602001838380828437600081840152601f19601f82011690508083019250505050505050815250600660008573ffffffffffffffffffffffffffffffffffffffff1673ffffffffffffffffffffffffffffffffffffffff16815260200190815260200160002060008201518160000160006101000a81548173ffffffffffffffffffffffffffffffffffffffff021916908373ffffffffffffffffffffffffffffffffffffffff160217905550602082015181600101908161049691906119f9565b50905050505050565b60066020528060005260406000206000915090508060000160009054906101000a900473ffffffffffffffffffffffffffffffffffffffff16908060010180546104e89061181c565b80601f01602080910402602001604051908101604052809291908181526020018280546105149061181c565b80156105615780601f1061053657610100808354040283529160200191610561565b820191906000526020600020905b81548152906001019060200180831161054457829003601f168201915b5050505050905082565b600460003373ffffffffffffffffffffffffffffffffffffffff1673ffffffffffffffffffffffffffffffffffffffff16815260200190815260200160002060009054906101000a900460ff166105f7576040517f08c379a00000000000000000000000000000000000000000000000000000000081526004016105ee90611b17565b60405180910390fd5b60006002600083815260200190815260200160002090506000816000015403610655576040517f08c379a000000000000000000000000000000000000000000000000000000000815260040161064c90611b83565b60405180910390fd5b8060020160149054906101000a900460ff16156106a7576040517f08c379a000000000000000000000000000000000000000000000000000000000815260040161069e90611bef565b60405180910390fd5b3373ffffffffffffffffffffffffffffffffffffffff168160010160009054906101000a900473ffffffffffffffffffffffffffffffffffffffff1673ffffffffffffffffffffffffffffffffffffffff1614610739576040517f08c379a000000000000000000000000000000000000000000000000000000000815260040161073090611c5b565b60405180910390fd5b60018160020160146101000a81548160ff0219169083151502179055507fe8b5971b93bc2d50255c6a94219f4583a7386ec6af8c8c7aa2920f19374e9ad78233604051610787929190611c7b565b60405180910390a15050565b600460003373ffffffffffffffffffffffffffffffffffffffff1673ffffffffffffffffffffffffffffffffffffffff16815260200190815260200160002060009054906101000a900460ff16806108345750600560003373ffffffffffffffffffffffffffffffffffffffff1673ffffffffffffffffffffffffffffffffffffffff16815260200190815260200160002060009054906101000a900460ff165b610873576040517f08c379a000000000000000000000000000000000000000000000000000000000815260040161086a90611cf0565b60405180910390fd5b600060026000838152602001908152602001600020905060008160000154036108d1576040517f08c379a00000000000000000000000000000000000000000000000000000000081526004016108c890611b83565b60405180910390fd5b8060020160169054906101000a900460ff1615610923576040517f08c379a000000000000000000000000000000000000000000000000000000000815260040161091a90611d5c565b60405180910390fd5b60018160020160166101000a81548160ff0219169083151502179055507ff8130e934f1a1262681baa94171fea492e81446a5801c244973db527247fca2a8233604051610971929190611c7b565b60405180910390a15050565b600560003373ffffffffffffffffffffffffffffffffffffffff1673ffffffffffffffffffffffffffffffffffffffff16815260200190815260200160002060009054906101000a900460ff16610a09576040517f08c379a0000000000000000000000000000000000000000000000000000000008152600401610a0090611dc8565b60405180910390fd5b60006002600083815260200190815260200160002090506000816000015403610a67576040517f08c379a0000000000000000000000000000000000000000000000000000000008152600401610a5e90611b83565b60405180910390fd5b8060020160149054906101000a900460ff16610ab8576040517f08c379a0000000000000000000000000000000000000000000000000000000008152600401610aaf90611e34565b60405180910390fd5b8060020160159054906101000a900460ff1615610b0a576040517f08c379a0000000000000000000000000000000000000000000000000000000008152600401610b0190611ea0565b60405180910390fd5b3373ffffffffffffffffffffffffffffffffffffffff168160020160009054906101000a900473ffffffffffffffffffffffffffffffffffffffff1673ffffffffffffffffffffffffffffffffffffffff1614610b9c576040517f08c379a0000000000000000000000000000000000000000000000000000000008152600401610b9390611f0c565b60405180910390fd5b60018160020160156101000a81548160ff0219169083151502179055507ff496e5f12d9be3cf0eca59255ad2d206f458ddb15bae33f7304e3db9a67764cc8233604051610bea929190611c7b565b60405180910390a15050565b610bfe6111dd565b8215610c5c5780600460008673ffffffffffffffffffffffffffffffffffffffff1673ffffffffffffffffffffffffffffffffffffffff16815260200190815260200160002060006101000a81548160ff0219169083151502179055505b8115610cba5780600560008673ffffffffffffffffffffffffffffffffffffffff1673ffffffffffffffffffffffffffffffffffffffff16815260200190815260200160002060006101000a81548160ff0219169083151502179055505b50505050565b60056020528060005260406000206000915054906101000a900460ff1681565b60015481565b610cee6111dd565b610cf86000611264565b565b600360003373ffffffffffffffffffffffffffffffffffffffff1673ffffffffffffffffffffffffffffffffffffffff16815260200190815260200160002060009054906101000a900460ff16610d86576040517f08c379a0000000000000000000000000000000000000000000000000000000008152600401610d7d90611f78565b60405180910390fd5b600073ffffffffffffffffffffffffffffffffffffffff168173ffffffffffffffffffffffffffffffffffffffff1603610df5576040517f08c379a0000000000000000000000000000000000000000000000000000000008152600401610dec90611fe4565b60405180910390fd5b600460008373ffffffffffffffffffffffffffffffffffffffff1673ffffffffffffffffffffffffffffffffffffffff16815260200190815260200160002060009054906101000a900460ff16610e81576040517f08c379a0000000000000000000000000000000000000000000000000000000008152600401610e7890612050565b60405180910390fd5b60016000815480929190610e949061209f565b91905055506040518060c001604052808481526020018373ffffffffffffffffffffffffffffffffffffffff1681526020018273ffffffffffffffffffffffffffffffffffffffff16815260200160001515815260200160001515815260200160001515815250600260008581526020019081526020016000206000820151816000015560208201518160010160006101000a81548173ffffffffffffffffffffffffffffffffffffffff021916908373ffffffffffffffffffffffffffffffffffffffff16021790555060408201518160020160006101000a81548173ffffffffffffffffffffffffffffffffffffffff021916908373ffffffffffffffffffffffffffffffffffffffff16021790555060608201518160020160146101000a81548160ff02191690831515021790555060808201518160020160156101000a81548160ff02191690831515021790555060a08201518160020160166101000a81548160ff0219169083151502179055509050507fc068833115282daf3e15c02769751662c1cf077a4af5a72d330a29dffbe96e1f600154838360405161103e939291906120e7565b60405180910390a1505050565b60008060009054906101000a900473ffffffffffffffffffffffffffffffffffffffff16905090565b60036020528060005260406000206000915054906101000a900460ff1681565b60046020528060005260406000206000915054906101000a900460ff1681565b60026020528060005260406000206000915090508060000154908060010160009054906101000a900473ffffffffffffffffffffffffffffffffffffffff16908060020160009054906101000a900473ffffffffffffffffffffffffffffffffffffffff16908060020160149054906101000a900460ff16908060020160159054906101000a900460ff16908060020160169054906101000a900460ff16905086565b61115f6111dd565b600073ffffffffffffffffffffffffffffffffffffffff168173ffffffffffffffffffffffffffffffffffffffff16036111d15760006040517f1e4fbdf70000000000000000000000000000000000000000000000000000000081526004016111c89190611742565b60405180910390fd5b6111da81611264565b50565b6111e5611328565b73ffffffffffffffffffffffffffffffffffffffff1661120361104b565b73ffffffffffffffffffffffffffffffffffffffff161461126257611226611328565b6040517f118cdaa70000000000000000000000000000000000000000000000000000000081526004016112599190611742565b60405180910390fd5b565b60008060009054906101000a900473ffffffffffffffffffffffffffffffffffffffff169050816000806101000a81548173ffffffffffffffffffffffffffffffffffffffff021916908373ffffffffffffffffffffffffffffffffffffffff1602179055508173ffffffffffffffffffffffffffffffffffffffff168173ffffffffffffffffffffffffffffffffffffffff167f8be0079c531659141344cd1fd0a4f28419497f9722a3daafe3b4186f6b6457e060405160405180910390a35050565b600033905090565b600080fd5b600080fd5b600073ffffffffffffffffffffffffffffffffffffffff82169050919050565b60006113658261133a565b9050919050565b6113758161135a565b811461138057600080fd5b50565b6000813590506113928161136c565b92915050565b60008115159050919050565b6113ad81611398565b81146113b857600080fd5b50565b6000813590506113ca816113a4565b92915050565b600080604083850312156113e7576113e6611330565b5b60006113f585828601611383565b9250506020611406858286016113bb565b9150509250929050565b600080fd5b600080fd5b600080fd5b60008083601f84011261143557611434611410565b5b8235905067ffffffffffffffff81111561145257611451611415565b5b60208301915083600182028301111561146e5761146d61141a565b5b9250929050565b60008060006040848603121561148e5761148d611330565b5b600061149c86828701611383565b935050602084013567ffffffffffffffff8111156114bd576114bc611335565b5b6114c98682870161141f565b92509250509250925092565b6000602082840312156114eb576114ea611330565b5b60006114f984828501611383565b91505092915050565b61150b8161135a565b82525050565b600081519050919050565b600082825260208201905092915050565b60005b8381101561154b578082015181840152602081019050611530565b60008484015250505050565b6000601f19601f8301169050919050565b600061157382611511565b61157d818561151c565b935061158d81856020860161152d565b61159681611557565b840191505092915050565b60006040820190506115b66000830185611502565b81810360208301526115c88184611568565b90509392505050565b6000819050919050565b6115e4816115d1565b81146115ef57600080fd5b50565b600081359050611601816115db565b92915050565b60006020828403121561161d5761161c611330565b5b600061162b848285016115f2565b91505092915050565b6000806000806080858703121561164e5761164d611330565b5b600061165c87828801611383565b945050602061166d878288016113bb565b935050604061167e878288016113bb565b925050606061168f878288016113bb565b91505092959194509250565b6116a481611398565b82525050565b60006020820190506116bf600083018461169b565b92915050565b6116ce816115d1565b82525050565b60006020820190506116e960008301846116c5565b92915050565b60008060006060848603121561170857611707611330565b5b6000611716868287016115f2565b935050602061172786828701611383565b925050604061173886828701611383565b9150509250925092565b60006020820190506117576000830184611502565b92915050565b600060c08201905061177260008301896116c5565b61177f6020830188611502565b61178c6040830187611502565b611799606083018661169b565b6117a6608083018561169b565b6117b360a083018461169b565b979650505050505050565b7f4e487b7100000000000000000000000000000000000000000000000000000000600052604160045260246000fd5b7f4e487b7100000000000000000000000000000000000000000000000000000000600052602260045260246000fd5b6000600282049050600182168061183457607f821691505b602082108103611847576118466117ed565b5b50919050565b60008190508160005260206000209050919050565b60006020601f8301049050919050565b600082821b905092915050565b6000600883026118af7fffffffffffffffffffffffffffffffffffffffffffffffffffffffffffffffff82611872565b6118b98683611872565b95508019841693508086168417925050509392505050565b6000819050919050565b60006118f66118f16118ec846115d1565b6118d1565b6115d1565b9050919050565b6000819050919050565b611910836118db565b61192461191c826118fd565b84845461187f565b825550505050565b600090565b61193961192c565b611944818484611907565b505050565b5b818110156119685761195d600082611931565b60018101905061194a565b5050565b601f8211156119ad5761197e8161184d565b61198784611862565b81016020851015611996578190505b6119aa6119a285611862565b830182611949565b50505b505050565b600082821c905092915050565b60006119d0600019846008026119b2565b1980831691505092915050565b60006119e983836119bf565b9150826002028217905092915050565b611a0282611511565b67ffffffffffffffff811115611a1b57611a1a6117be565b5b611a25825461181c565b611a3082828561196c565b600060209050601f831160018114611a635760008415611a51578287015190505b611a5b85826119dd565b865550611ac3565b601f198416611a718661184d565b60005b82811015611a9957848901518255600182019150602085019450602081019050611a74565b86831015611ab65784890151611ab2601f8916826119bf565b8355505b6001600288020188555050505b505050505050565b7f4e6f7420616e20617574686f72697a656420496f542053656e64657200000000600082015250565b6000611b01601c8361151c565b9150611b0c82611acb565b602082019050919050565b60006020820190508181036000830152611b3081611af4565b9050919050565b7f4c6162656c20646f6573206e6f74206578697374000000000000000000000000600082015250565b6000611b6d60148361151c565b9150611b7882611b37565b602082019050919050565b60006020820190508181036000830152611b9c81611b60565b9050919050565b7f4c6162656c20616c7265616479206d61726b65642061732073656e7400000000600082015250565b6000611bd9601c8361151c565b9150611be482611ba3565b602082019050919050565b60006020820190508181036000830152611c0881611bcc565b9050919050565b7f4e6f74207468652073656e646572206f662074686973206c6162656c00000000600082015250565b6000611c45601c8361151c565b9150611c5082611c0f565b602082019050919050565b60006020820190508181036000830152611c7481611c38565b9050919050565b6000604082019050611c9060008301856116c5565b611c9d6020830184611502565b9392505050565b7f4e6f7420616e20617574686f72697a656420496f542044657669636500000000600082015250565b6000611cda601c8361151c565b9150611ce582611ca4565b602082019050919050565b60006020820190508181036000830152611d0981611ccd565b9050919050565b7f4c6162656c20616c726561647920766f69646564000000000000000000000000600082015250565b6000611d4660148361151c565b9150611d5182611d10565b602082019050919050565b60006020820190508181036000830152611d7581611d39565b9050919050565b7f4e6f7420616e20617574686f72697a656420496f542052656365697665720000600082015250565b6000611db2601e8361151c565b9150611dbd82611d7c565b602082019050919050565b60006020820190508181036000830152611de181611da5565b9050919050565b7f4c6162656c206e6f74206d61726b65642061732073656e740000000000000000600082015250565b6000611e1e60188361151c565b9150611e2982611de8565b602082019050919050565b60006020820190508181036000830152611e4d81611e11565b9050919050565b7f4c6162656c20616c7265616479206d61726b6564206173207265636569766564600082015250565b6000611e8a60208361151c565b9150611e9582611e54565b602082019050919050565b60006020820190508181036000830152611eb981611e7d565b9050919050565b7f4e6f7420746865207265636569766572206f662074686973206c6162656c0000600082015250565b6000611ef6601e8361151c565b9150611f0182611ec0565b602082019050919050565b60006020820190508181036000830152611f2581611ee9565b9050919050565b7f4e6f7420616e20617574686f72697a6564204c6162656c2043726561746f7200600082015250565b6000611f62601f8361151c565b9150611f6d82611f2c565b602082019050919050565b60006020820190508181036000830152611f9181611f55565b9050919050565b7f496e76616c696420726563656976657220616464726573730000000000000000600082015250565b6000611fce60188361151c565b9150611fd982611f98565b602082019050919050565b60006020820190508181036000830152611ffd81611fc1565b9050919050565b7f53656e646572206e6f7420617574686f72697a65640000000000000000000000600082015250565b600061203a60158361151c565b915061204582612004565b602082019050919050565b600060208201905081810360008301526120698161202d565b9050919050565b7f4e487b7100000000000000000000000000000000000000000000000000000000600052601160045260246000fd5b60006120aa826115d1565b91507fffffffffffffffffffffffffffffffffffffffffffffffffffffffffffffffff82036120dc576120db612070565b5b600182019050919050565b60006060820190506120fc60008301866116c5565b6121096020830185611502565b6121166040830184611502565b94935050505056fea2646970667358221220f25d8d41377d8f67089be20ab986e05097dfd80a48eedadad819f7866c00f79664736f6c634300081c0033",
  "devdoc": {
    "errors": {
      "OwnableInvalidOwner(address)": [
        {
          "details": "The owner is not a valid owner account. (eg. `address(0)`)"
        }
      ],
      "OwnableUnauthorizedAccount(address)": [
        {
          "details": "The caller account is not authorized to perform an operation."
        }
      ]
    },
    "kind": "dev",
    "methods": {
      "owner()": {
        "details": "Returns the address of the current owner."
      },
      "renounceOwnership()": {
        "details": "Leaves the contract without owner. It will not be possible to call `onlyOwner` functions. Can only be called by the current owner. NOTE: Renouncing ownership will leave the contract without an owner, thereby disabling any functionality that is only available to the owner."
      },
      "setIoTAuthorization(address,bool,bool,bool)": {
        "details": "This single function toggles (de)authorization     for IoT Sender and/or IoT Receiver in one call.",
        "params": {
          "_asReceiver": "Set true if you want to (de)authorize as Receiver",
          "_asSender": "Set true if you want to (de)authorize as Sender",
          "_status": "True = authorize, False = de-authorize"
        }
      },
      "transferOwnership(address)": {
        "details": "Transfers ownership of the contract to a new account (`newOwner`). Can only be called by the current owner."
      }
    },
    "version": 1
  },
  "userdoc": {
    "kind": "user",
    "methods": {
      "setDeviceInfo(address,string)": {
        "notice": "Optionally store extra device info (like location).         This can also be used to ensure that the devices location         matches a Labels destination, if your use-case requires it."
      }
    },
    "version": 1
  },
  "storageLayout": {
    "storage": [
      {
        "astId": 8,
        "contract": "contracts/IOTContractMonitoring.sol:IOTContractMonitoring",
        "label": "_owner",
        "offset": 0,
        "slot": "0",
        "type": "t_address"
      },
      {
        "astId": 573,
        "contract": "contracts/IOTContractMonitoring.sol:IOTContractMonitoring",
        "label": "labelCounter",
        "offset": 0,
        "slot": "1",
        "type": "t_uint256"
      },
      {
        "astId": 578,
        "contract": "contracts/IOTContractMonitoring.sol:IOTContractMonitoring",
        "label": "labels",
        "offset": 0,
        "slot": "2",
        "type": "t_mapping(t_uint256,t_struct(Label)566_storage)"
      },
      {
        "astId": 582,
        "contract": "contracts/IOTContractMonitoring.sol:IOTContractMonitoring",
        "label": "authorizedLabelCreators",
        "offset": 0,
        "slot": "3",
        "type": "t_mapping(t_address,t_bool)"
      },
      {
        "astId": 586,
        "contract": "contracts/IOTContractMonitoring.sol:IOTContractMonitoring",
        "label": "authorizedIoTSenders",
        "offset": 0,
        "slot": "4",
        "type": "t_mapping(t_address,t_bool)"
      },
      {
        "astId": 590,
        "contract": "contracts/IOTContractMonitoring.sol:IOTContractMonitoring",
        "label": "authorizedIoTReceivers",
        "offset": 0,
        "slot": "5",
        "type": "t_mapping(t_address,t_bool)"
      },
      {
        "astId": 595,
        "contract": "contracts/IOTContractMonitoring.sol:IOTContractMonitoring",
        "label": "deviceInfo",
        "offset": 0,
        "slot": "6",
        "type": "t_mapping(t_address,t_struct(IoTDeviceInfo)571_storage)"
      }
    ],
    "types": {
      "t_address": {
        "encoding": "inplace",
        "label": "address",
        "numberOfBytes": "20"
      },
      "t_bool": {
        "encoding": "inplace",
        "label": "bool",
        "numberOfBytes": "1"
      },
      "t_mapping(t_address,t_bool)": {
        "encoding": "mapping",
        "key": "t_address",
        "label": "mapping(address => bool)",
        "numberOfBytes": "32",
        "value": "t_bool"
      },
      "t_mapping(t_address,t_struct(IoTDeviceInfo)571_storage)": {
        "encoding": "mapping",
        "key": "t_address",
        "label": "mapping(address => struct IOTContractMonitoring.IoTDeviceInfo)",
        "numberOfBytes": "32",
        "value": "t_struct(IoTDeviceInfo)571_storage"
      },
      "t_mapping(t_uint256,t_struct(Label)566_storage)": {
        "encoding": "mapping",
        "key": "t_uint256",
        "label": "mapping(uint256 => struct IOTContractMonitoring.Label)",
        "numberOfBytes": "32",
        "value": "t_struct(Label)566_storage"
      },
      "t_string_storage": {
        "encoding": "bytes",
        "label": "string",
        "numberOfBytes": "32"
      },
      "t_struct(IoTDeviceInfo)571_storage": {
        "encoding": "inplace",
        "label": "struct IOTContractMonitoring.IoTDeviceInfo",
        "members": [
          {
            "astId": 568,
            "contract": "contracts/IOTContractMonitoring.sol:IOTContractMonitoring",
            "label": "device",
            "offset": 0,
            "slot": "0",
            "type": "t_address"
          },
          {
            "astId": 570,
            "contract": "contracts/IOTContractMonitoring.sol:IOTContractMonitoring",
            "label": "location",
            "offset": 0,
            "slot": "1",
            "type": "t_string_storage"
          }
        ],
        "numberOfBytes": "64"
      },
      "t_struct(Label)566_storage": {
        "encoding": "inplace",
        "label": "struct IOTContractMonitoring.Label",
        "members": [
          {
            "astId": 555,
            "contract": "contracts/IOTContractMonitoring.sol:IOTContractMonitoring",
            "label": "id",
            "offset": 0,
            "slot": "0",
            "type": "t_uint256"
          },
          {
            "astId": 557,
            "contract": "contracts/IOTContractMonitoring.sol:IOTContractMonitoring",
            "label": "sender",
            "offset": 0,
            "slot": "1",
            "type": "t_address"
          },
          {
            "astId": 559,
            "contract": "contracts/IOTContractMonitoring.sol:IOTContractMonitoring",
            "label": "receiver",
            "offset": 0,
            "slot": "2",
            "type": "t_address"
          },
          {
            "astId": 561,
            "contract": "contracts/IOTContractMonitoring.sol:IOTContractMonitoring",
            "label": "sent",
            "offset": 20,
            "slot": "2",
            "type": "t_bool"
          },
          {
            "astId": 563,
            "contract": "contracts/IOTContractMonitoring.sol:IOTContractMonitoring",
            "label": "received",
            "offset": 21,
            "slot": "2",
            "type": "t_bool"
          },
          {
            "astId": 565,
            "contract": "contracts/IOTContractMonitoring.sol:IOTContractMonitoring",
            "label": "voided",
            "offset": 22,
            "slot": "2",
            "type": "t_bool"
          }
        ],
        "numberOfBytes": "96"
      },
      "t_uint256": {
        "encoding": "inplace",
        "label": "uint256",
        "numberOfBytes": "32"
      }
    }
  }
}